{
  "transactions": [
    {
      "hash": "0x7a867516eea43d4f1ab79ebf2f2452df32f80178eec9cb4d39feaf9e82342a91",
      "transactionType": "CREATE",
      "contractName": "MockUSDT",
      "contractAddress": "0x15e6d94ad51bc813d74e034fc067778f85d26936",
      "function": null,
      "arguments": [
        "0x27A2dD1823D883935c9824fbaC0a018cE8e891E5"
      ],
      "transaction": {
        "from": "0x27a2dd1823d883935c9824fbac0a018ce8e891e5",
        "gas": "0x9cc5e",
        "value": "0x0",
        "input": "0x6080604052346103b7576109e86020813803918261001c816103bb565b9384928339810103126103b757516001600160a01b038116908190036103b75761004660406103bb565b90600f82526e26b7b1b5902aa9a2102a32ba3432b960891b602083015261006d60406103bb565b60048152631554d11560e21b602082015282519091906001600160401b0381116102c857600354600181811c911680156103ad575b60208210146102aa57601f811161034a575b506020601f82116001146102e757819293945f926102dc575b50508160011b915f199060031b1c1916176003555b81516001600160401b0381116102c857600454600181811c911680156102be575b60208210146102aa57601f8111610247575b50602092601f82116001146101e657928192935f926101db575b50508160011b915f199060031b1c1916176004555b80156101c85760025464e8d4a5100081018091116101b457600255805f525f60205260405f2064e8d4a5100081540190555f7fddf252ad1be2c89b69c2b068fc378daa952ba7f163c4a11628f55a4df523b3ef602060405164e8d4a510008152a360405161060790816103e18239f35b634e487b7160e01b5f52601160045260245ffd5b63ec442f0560e01b5f525f60045260245ffd5b015190505f8061012f565b601f1982169360045f52805f20915f5b86811061022f5750836001959610610217575b505050811b01600455610144565b01515f1960f88460031b161c191690555f8080610209565b919260206001819286850151815501940192016101f6565b60045f527f8a35acfbc15ff81a39ae7d344fd709f28e8600b4aa8c65c6b64bfe7fe36bd19b601f830160051c810191602084106102a0575b601f0160051c01905b8181106102955750610115565b5f8155600101610288565b909150819061027f565b634e487b7160e01b5f52602260045260245ffd5b90607f1690610103565b634e487b7160e01b5f52604160045260245ffd5b015190505f806100cd565b601f1982169060035f52805f20915f5b8181106103325750958360019596971061031a575b505050811b016003556100e2565b01515f1960f88460031b161c191690555f808061030c565b9192602060018192868b0151815501940192016102f7565b60035f527fc2575a0e9e593c00f959f8c92f12db2869c3395a3b0502d05e2516446f71f85b601f830160051c810191602084106103a3575b601f0160051c01905b81811061039857506100b4565b5f815560010161038b565b9091508190610382565b90607f16906100a2565b5f80fd5b6040519190601f01601f191682016001600160401b038111838210176102c85760405256fe6080806040526004361015610012575f80fd5b5f3560e01c90816306fdde03146103ef57508063095ea7b31461036d57806318160ddd1461035057806323b872dd14610271578063313ce5671461025657806370a082311461021f57806395d89b4114610104578063a9059cbb146100d35763dd62ed3e1461007f575f80fd5b346100cf5760403660031901126100cf576100986104e8565b6100a06104fe565b6001600160a01b039182165f908152600160209081526040808320949093168252928352819020549051908152f35b5f80fd5b346100cf5760403660031901126100cf576100f96100ef6104e8565b6024359033610514565b602060405160018152f35b346100cf575f3660031901126100cf576040515f6004548060011c90600181168015610215575b602083108114610201578285529081156101e55750600114610190575b50819003601f01601f191681019067ffffffffffffffff82118183101761017c57610178829182604052826104be565b0390f35b634e487b7160e01b5f52604160045260245ffd5b905060045f527f8a35acfbc15ff81a39ae7d344fd709f28e8600b4aa8c65c6b64bfe7fe36bd19b5f905b8282106101cf57506020915082010182610148565b60018160209254838588010152019101906101ba565b90506020925060ff191682840152151560051b82010182610148565b634e487b7160e01b5f52602260045260245ffd5b91607f169161012b565b346100cf5760203660031901126100cf576001600160a01b036102406104e8565b165f525f602052602060405f2054604051908152f35b346100cf575f3660031901126100cf57602060405160068152f35b346100cf5760603660031901126100cf5761028a6104e8565b6102926104fe565b6001600160a01b0382165f818152600160209081526040808320338452909152902054909260443592915f1981106102d0575b506100f99350610514565b83811061033557841561032257331561030f576100f9945f52600160205260405f2060018060a01b0333165f526020528360405f2091039055846102c5565b634a1406b160e11b5f525f60045260245ffd5b63e602df0560e01b5f525f60045260245ffd5b8390637dc7a0d960e11b5f523360045260245260445260645ffd5b346100cf575f3660031901126100cf576020600254604051908152f35b346100cf5760403660031901126100cf576103866104e8565b602435903315610322576001600160a01b031690811561030f57335f52600160205260405f20825f526020528060405f20556040519081527f8c5be1e5ebec7d5bd14f71427d1e84f3dd0314c0f7b2291e5b200ac8c7c3b92560203392a3602060405160018152f35b346100cf575f3660031901126100cf575f6003548060011c906001811680156104b4575b602083108114610201578285529081156101e5575060011461045f5750819003601f01601f191681019067ffffffffffffffff82118183101761017c57610178829182604052826104be565b905060035f527fc2575a0e9e593c00f959f8c92f12db2869c3395a3b0502d05e2516446f71f85b5f905b82821061049e57506020915082010182610148565b6001816020925483858801015201910190610489565b91607f1691610413565b602060409281835280519182918282860152018484015e5f828201840152601f01601f1916010190565b600435906001600160a01b03821682036100cf57565b602435906001600160a01b03821682036100cf57565b6001600160a01b03169081156105be576001600160a01b03169182156105ab57815f525f60205260405f205481811061059257817fddf252ad1be2c89b69c2b068fc378daa952ba7f163c4a11628f55a4df523b3ef92602092855f525f84520360405f2055845f525f825260405f20818154019055604051908152a3565b8263391434e360e21b5f5260045260245260445260645ffd5b63ec442f0560e01b5f525f60045260245ffd5b634b637e8f60e11b5f525f60045260245ffdfea264697066735822122007bd523bdee5a0339a1de2270e67c58123291b58dfdc6418c603770bcb30dcb264736f6c634300081d003300000000000000000000000027a2dd1823d883935c9824fbac0a018ce8e891e5",
        "nonce": "0x11d",
        "chainId": "0xaa36a7"
      },
      "additionalContracts": [],
      "isFixedGasLimit": false
    },
    {
      "hash": "0x82bd9117f92ebb3054bd56140e0fabc8fc5480200dfebe2ab35c2fcd3175dc9d",
      "transactionType": "CALL",
      "contractName": null,
      "contractAddress": "0xeb7e65ba425dfceeb8ccf3e4be5196e33a91bc66",
      "function": "addSupportedToken(address)",
      "arguments": [
        "0x15e6d94AD51bC813d74e034FC067778F85D26936"
      ],
      "transaction": {
        "from": "0x27a2dd1823d883935c9824fbac0a018ce8e891e5",
        "to": "0xeb7e65ba425dfceeb8ccf3e4be5196e33a91bc66",
        "gas": "0x1e5e5",
        "value": "0x0",
        "input": "0x6d69fcaf00000000000000000000000015e6d94ad51bc813d74e034fc067778f85d26936",
        "nonce": "0x11e",
        "chainId": "0xaa36a7"
      },
      "additionalContracts": [],
      "isFixedGasLimit": false
    },
    {
      "hash": "0x4b8caa77a4550606ae4fdb3d6ea61eae0b76000ee7114bde09a9477572bfb60f",
      "transactionType": "CALL",
      "contractName": null,
      "contractAddress": "0xeb7e65ba425dfceeb8ccf3e4be5196e33a91bc66",
      "function": "bootstrapAgent(address,string)",
      "arguments": [
        "0xf39Fd6e51aad88F6F4ce6aB8827279cffFb92266",
        "Alpha"
      ],
      "transaction": {
        "from": "0x27a2dd1823d883935c9824fbac0a018ce8e891e5",
        "to": "0xeb7e65ba425dfceeb8ccf3e4be5196e33a91bc66",
        "gas": "0x3ed5e",
        "value": "0x0",
        "input": "0xc9479cf2000000000000000000000000f39fd6e51aad88f6f4ce6ab8827279cfffb9226600000000000000000000000000000000000000000000000000000000000000400000000000000000000000000000000000000000000000000000000000000005416c706861000000000000000000000000000000000000000000000000000000",
        "nonce": "0x11f",
        "chainId": "0xaa36a7"
      },
      "additionalContracts": [],
      "isFixedGasLimit": false
    },
    {
      "hash": "0x37da923a47b26332bad4e6f8a9e2e5fadb793494b1ca2dbf3910c46b46b63d77",
      "transactionType": "CALL",
      "contractName": null,
      "contractAddress": "0xeb7e65ba425dfceeb8ccf3e4be5196e33a91bc66",
      "function": "bootstrapAgent(address,string)",
      "arguments": [
        "0x9858EfFD232B4033E47d90003D41EC34EcaEda94",
        "Beta"
      ],
      "transaction": {
        "from": "0x27a2dd1823d883935c9824fbac0a018ce8e891e5",
        "to": "0xeb7e65ba425dfceeb8ccf3e4be5196e33a91bc66",
        "gas": "0x3c6ae",
        "value": "0x0",
        "input": "0xc9479cf20000000000000000000000009858effd232b4033e47d90003d41ec34ecaeda94000000000000000000000000000000000000000000000000000000000000004000000000000000000000000000000000000000000000000000000000000000044265746100000000000000000000000000000000000000000000000000000000",
        "nonce": "0x120",
        "chainId": "0xaa36a7"
      },
      "additionalContracts": [],
      "isFixedGasLimit": false
    },
    {
      "hash": "0x05097753f0ed2b0d8d19f664376940774c02bb00351323f830c54b4f4dfcb3c9",
      "transactionType": "CALL",
      "contractName": null,
      "contractAddress": "0xeb7e65ba425dfceeb8ccf3e4be5196e33a91bc66",
      "function": "bootstrapAgent(address,string)",
      "arguments": [
        "0xfc2077CA7F403cBECA41B1B0F62D91B5EA631B5E",
        "Gamma"
      ],
      "transaction": {
        "from": "0x27a2dd1823d883935c9824fbac0a018ce8e891e5",
        "to": "0xeb7e65ba425dfceeb8ccf3e4be5196e33a91bc66",
        "gas": "0x3c6d1",
        "value": "0x0",
        "input": "0xc9479cf2000000000000000000000000fc2077ca7f403cbeca41b1b0f62d91b5ea631b5e0000000000000000000000000000000000000000000000000000000000000040000000000000000000000000000000000000000000000000000000000000000547616d6d61000000000000000000000000000000000000000000000000000000",
        "nonce": "0x121",
        "chainId": "0xaa36a7"
      },
      "additionalContracts": [],
      "isFixedGasLimit": false
    },
    {
      "hash": "0x97828ff04fe40de1567d0f1ecd9533dba55bb37c36fdea5c50d49229931a77f6",
      "transactionType": "CALL",
      "contractName": null,
      "contractAddress": "0xeb7e65ba425dfceeb8ccf3e4be5196e33a91bc66",
      "function": "bootstrapAgent(address,string)",
      "arguments": [
        "0x58A57ed9d8d624cBD12e2C467D34787555bB1b25",
        "Delta"
      ],
      "transaction": {
        "from": "0x27a2dd1823d883935c9824fbac0a018ce8e891e5",
        "to": "0xeb7e65ba425dfceeb8ccf3e4be5196e33a91bc66",
        "gas": "0x3c6d1",
        "value": "0x0",
        "input": "0xc9479cf200000000000000000000000058a57ed9d8d624cbd12e2c467d34787555bb1b250000000000000000000000000000000000000000000000000000000000000040000000000000000000000000000000000000000000000000000000000000000544656c7461000000000000000000000000000000000000000000000000000000",
        "nonce": "0x122",
        "chainId": "0xaa36a7"
      },
      "additionalContracts": [],
      "isFixedGasLimit": false
    },
    {
      "hash": "0xae3556446897ac97b5b2ec9b1f27b3467d33de97ab9c928533af6cb1abbc958a",
      "transactionType": "CALL",
      "contractName": null,
      "contractAddress": "0xeb7e65ba425dfceeb8ccf3e4be5196e33a91bc66",
      "function": "bootstrapAgent(address,string)",
      "arguments": [
        "0x3061750d3dF69ef7B8d4407CB7f3F879Fd9d2398",
        "Epsilon"
      ],
      "transaction": {
        "from": "0x27a2dd1823d883935c9824fbac0a018ce8e891e5",
        "to": "0xeb7e65ba425dfceeb8ccf3e4be5196e33a91bc66",
        "gas": "0x3c6f4",
        "value": "0x0",
        "input": "0xc9479cf20000000000000000000000003061750d3df69ef7b8d4407cb7f3f879fd9d239800000000000000000000000000000000000000000000000000000000000000400000000000000000000000000000000000000000000000000000000000000007457073696c6f6e00000000000000000000000000000000000000000000000000",
        "nonce": "0x123",
        "chainId": "0xaa36a7"
      },
      "additionalContracts": [],
      "isFixedGasLimit": false
    },
    {
      "hash": "0xf848a46ec4f70bd28380a6110f232fdd6e7ec8a355d182916e28083681d95d09",
      "transactionType": "CALL",
      "contractName": "MockUSDT",
      "contractAddress": "0x15e6d94ad51bc813d74e034fc067778f85d26936",
      "function": "approve(address,uint256)",
      "arguments": [
        "0xeB7e65Ba425DFCeEb8ccF3e4BE5196e33A91bc66",
        "100000000000"
      ],
      "transaction": {
        "from": "0x27a2dd1823d883935c9824fbac0a018ce8e891e5",
        "to": "0x15e6d94ad51bc813d74e034fc067778f85d26936",
        "gas": "0xf7d3",
        "value": "0x0",
        "input": "0x095ea7b3000000000000000000000000eb7e65ba425dfceeb8ccf3e4be5196e33a91bc66000000000000000000000000000000000000000000000000000000174876e800",
        "nonce": "0x124",
        "chainId": "0xaa36a7"
      },
      "additionalContracts": [],
      "isFixedGasLimit": false
    },
    {
      "hash": "0x2c5483a6354e8e453a028df9f4b6553785e62f3e4db974c26067ba73a4f5b9cd",
      "transactionType": "CALL",
      "contractName": null,
      "contractAddress": "0xeb7e65ba425dfceeb8ccf3e4be5196e33a91bc66",
      "function": "deposit(address,uint256)",
      "arguments": [
        "0x15e6d94AD51bC813d74e034FC067778F85D26936",
        "100000000000"
      ],
      "transaction": {
        "from": "0x27a2dd1823d883935c9824fbac0a018ce8e891e5",
        "to": "0xeb7e65ba425dfceeb8ccf3e4be5196e33a91bc66",
        "gas": "0x1de1c",
        "value": "0x0",
        "input": "0x47e7ef2400000000000000000000000015e6d94ad51bc813d74e034fc067778f85d26936000000000000000000000000000000000000000000000000000000174876e800",
        "nonce": "0x125",
        "chainId": "0xaa36a7"
      },
      "additionalContracts": [],
      "isFixedGasLimit": false
    }
  ],
  "receipts": [
    {
      "status": "0x1",
      "cumulativeGasUsed": "0xcea6e3",
      "logs": [
        {
          "address": "0x15e6d94ad51bc813d74e034fc067778f85d26936",
          "topics": [
            "0xddf252ad1be2c89b69c2b068fc378daa952ba7f163c4a11628f55a4df523b3ef",
            "0x0000000000000000000000000000000000000000000000000000000000000000",
            "0x00000000000000000000000027a2dd1823d883935c9824fbac0a018ce8e891e5"
          ],
          "data": "0x000000000000000000000000000000000000000000000000000000e8d4a51000",
          "blockHash": "0xd526402f38b0b8d1c08a45e72f1b177b2e0018bc09a4b989ffb8bf75ec8780cb",
          "blockNumber": "0xa00ea5",
          "blockTimestamp": "0x69be5174",
          "transactionHash": "0x7a867516eea43d4f1ab79ebf2f2452df32f80178eec9cb4d39feaf9e82342a91",
          "transactionIndex": "0x5e",
          "logIndex": "0x1d1",
          "removed": false
        }
      ],
      "logsBloom": "0x00000000000000000000000000000000000000000000000000000000000000000000000000000000000000000000001000000000000000000000000000000000000100000000000000000008000000000000000000000000000000000000000000000000020000000000000000000800000000000000000000000010000000000000000000400000000000000000000000000000000000000000000000000000000800000000000000000000000000000000000000000000000000000000000000000002000000000000000000000000000000400000000000000000000020400000000000000000000000000000000000000000000000000000000000000000",
      "type": "0x2",
      "transactionHash": "0x7a867516eea43d4f1ab79ebf2f2452df32f80178eec9cb4d39feaf9e82342a91",
      "transactionIndex": "0x5e",
      "blockHash": "0xd526402f38b0b8d1c08a45e72f1b177b2e0018bc09a4b989ffb8bf75ec8780cb",
      "blockNumber": "0xa00ea5",
      "gasUsed": "0x78984",
      "effectiveGasPrice": "0xf424a",
      "from": "0x27a2dd1823d883935c9824fbac0a018ce8e891e5",
      "to": null,
      "contractAddress": "0x15e6d94ad51bc813d74e034fc067778f85d26936"
    },
    {
      "status": "0x1",
      "cumulativeGasUsed": "0xd006ab",
      "logs": [
        {
          "address": "0xeb7e65ba425dfceeb8ccf3e4be5196e33a91bc66",
          "topics": [
            "0x784c8f4dbf0ffedd6e72c76501c545a70f8b203b30a26ce542bf92ba87c248a4",
            "0x00000000000000000000000015e6d94ad51bc813d74e034fc067778f85d26936"
          ],
          "data": "0x",
          "blockHash": "0xd526402f38b0b8d1c08a45e72f1b177b2e0018bc09a4b989ffb8bf75ec8780cb",
          "blockNumber": "0xa00ea5",
          "blockTimestamp": "0x69be5174",
          "transactionHash": "0x82bd9117f92ebb3054bd56140e0fabc8fc5480200dfebe2ab35c2fcd3175dc9d",
          "transactionIndex": "0x5f",
          "logIndex": "0x1d2",
          "removed": false
        }
      ],
      "logsBloom": "0x00000000000000000000000000000000000000000000000000000000000000000400000000000000000000000000000000000000000000000200000000000000000000000000000000000000800000000000000000010000000000000000000000100080000000000000000000000000000000000000200000000000000000000000000000000000000000000000000000000000000000000000000000000000000000000000000000200000000000000000000000000000000000000000000000000000000000000000000000000000000000000000000000000000000000000000000000000000000000000000000000000000000000001000000000000000",
      "type": "0x2",
      "transactionHash": "0x82bd9117f92ebb3054bd56140e0fabc8fc5480200dfebe2ab35c2fcd3175dc9d",
      "transactionIndex": "0x5f",
      "blockHash": "0xd526402f38b0b8d1c08a45e72f1b177b2e0018bc09a4b989ffb8bf75ec8780cb",
      "blockNumber": "0xa00ea5",
      "gasUsed": "0x15fc8",
      "effectiveGasPrice": "0xf424a",
      "from": "0x27a2dd1823d883935c9824fbac0a018ce8e891e5",
      "to": "0xeb7e65ba425dfceeb8ccf3e4be5196e33a91bc66",
      "contractAddress": null
    },
    {
      "status": "0x1",
      "cumulativeGasUsed": "0xd33308",
      "logs": [
        {
          "address": "0xeb7e65ba425dfceeb8ccf3e4be5196e33a91bc66",
          "topics": [
            "0x023c5efe572c42192271951adb0e77f97d7fc84bc761d026189ac08617346824",
            "0x000000000000000000000000f39fd6e51aad88f6f4ce6ab8827279cfffb92266"
          ],
          "data": "0x000000000000000000000000000000000000000000000000000000000000004000000000000000000000000000000000000000000000000000000000000003e80000000000000000000000000000000000000000000000000000000000000005416c706861000000000000000000000000000000000000000000000000000000",
          "blockHash": "0xd526402f38b0b8d1c08a45e72f1b177b2e0018bc09a4b989ffb8bf75ec8780cb",
          "blockNumber": "0xa00ea5",
          "blockTimestamp": "0x69be5174",
          "transactionHash": "0x4b8caa77a4550606ae4fdb3d6ea61eae0b76000ee7114bde09a9477572bfb60f",
          "transactionIndex": "0x61",
          "logIndex": "0x1d3",
          "removed": false
        }
      ],
      "logsBloom": "0x00000000000000000000000000000000000000000000000000000000000040000000000000000000000000000000000000000000000000000200000000000000000000000000000000000000000000000000000000010000000000000000000000000080000000000000000100000000000000000000000000000000000000000000000000000000000000000000000000000000000000000000000000000000000100000000000000000000000000000000000000000000000000000000000200000000000000200000000000000000000000002000000000000000000000000000000000000000000000000000000000000000000000000000000000000000",
      "type": "0x2",
      "transactionHash": "0x4b8caa77a4550606ae4fdb3d6ea61eae0b76000ee7114bde09a9477572bfb60f",
      "transactionIndex": "0x61",
      "blockHash": "0xd526402f38b0b8d1c08a45e72f1b177b2e0018bc09a4b989ffb8bf75ec8780cb",
      "blockNumber": "0xa00ea5",
      "gasUsed": "0x2d7df",
      "effectiveGasPrice": "0xf424a",
      "from": "0x27a2dd1823d883935c9824fbac0a018ce8e891e5",
      "to": "0xeb7e65ba425dfceeb8ccf3e4be5196e33a91bc66",
      "contractAddress": null
    },
    {
      "status": "0x1",
      "cumulativeGasUsed": "0xd5c803",
      "logs": [
        {
          "address": "0xeb7e65ba425dfceeb8ccf3e4be5196e33a91bc66",
          "topics": [
            "0x023c5efe572c42192271951adb0e77f97d7fc84bc761d026189ac08617346824",
            "0x0000000000000000000000009858effd232b4033e47d90003d41ec34ecaeda94"
          ],
          "data": "0x000000000000000000000000000000000000000000000000000000000000004000000000000000000000000000000000000000000000000000000000000003e800000000000000000000000000000000000000000000000000000000000000044265746100000000000000000000000000000000000000000000000000000000",
          "blockHash": "0xd526402f38b0b8d1c08a45e72f1b177b2e0018bc09a4b989ffb8bf75ec8780cb",
          "blockNumber": "0xa00ea5",
          "blockTimestamp": "0x69be5174",
          "transactionHash": "0x37da923a47b26332bad4e6f8a9e2e5fadb793494b1ca2dbf3910c46b46b63d77",
          "transactionIndex": "0x62",
          "logIndex": "0x1d4",
          "removed": false
        }
      ],
      "logsBloom": "0x00000000000000000000000000000000000000000000000000000000000040000000000000000000000000000000000000000000000000000200000000000000000000000000000000000000000000000000000000010000000000000000000000000080000000000000002000000000000000000000000000000000000000000000000000000000000000000000000000000000000000000000000000000000000100000000000000000000000000000000000000000002000000000000000200000200000000000000000000000000000000000000000000000000000000000000000000000000000000000000000000000000000000000000000000000000",
      "type": "0x2",
      "transactionHash": "0x37da923a47b26332bad4e6f8a9e2e5fadb793494b1ca2dbf3910c46b46b63d77",
      "transactionIndex": "0x62",
      "blockHash": "0xd526402f38b0b8d1c08a45e72f1b177b2e0018bc09a4b989ffb8bf75ec8780cb",
      "blockNumber": "0xa00ea5",
      "gasUsed": "0x294fb",
      "effectiveGasPrice": "0xf424a",
      "from": "0x27a2dd1823d883935c9824fbac0a018ce8e891e5",
      "to": "0xeb7e65ba425dfceeb8ccf3e4be5196e33a91bc66",
      "contractAddress": null
    },
    {
      "status": "0x1",
      "cumulativeGasUsed": "0xd85d16",
      "logs": [
        {
          "address": "0xeb7e65ba425dfceeb8ccf3e4be5196e33a91bc66",
          "topics": [
            "0x023c5efe572c42192271951adb0e77f97d7fc84bc761d026189ac08617346824",
            "0x000000000000000000000000fc2077ca7f403cbeca41b1b0f62d91b5ea631b5e"
          ],
          "data": "0x000000000000000000000000000000000000000000000000000000000000004000000000000000000000000000000000000000000000000000000000000003e8000000000000000000000000000000000000000000000000000000000000000547616d6d61000000000000000000000000000000000000000000000000000000",
          "blockHash": "0xd526402f38b0b8d1c08a45e72f1b177b2e0018bc09a4b989ffb8bf75ec8780cb",
          "blockNumber": "0xa00ea5",
          "blockTimestamp": "0x69be5174",
          "transactionHash": "0x05097753f0ed2b0d8d19f664376940774c02bb00351323f830c54b4f4dfcb3c9",
          "transactionIndex": "0x63",
          "logIndex": "0x1d5",
          "removed": false
        }
      ],
      "logsBloom": "0x00000000000000000000000000000000000000000000000000000000000040000000000000000000000000000000000000000000000000000200000000000000000000000000000000000000000000000000000000010200000000000000000000000080000000000000000000000000000000000000000000000000000000000000000000000000000000000000000000000000000000000000000000000000000100000000000000000000000000000000000000000004000000000000000200000000000000000000000000000000000000000000100000000000000000000000000000000000000000000000000000000000000000000000000000000000",
      "type": "0x2",
      "transactionHash": "0x05097753f0ed2b0d8d19f664376940774c02bb00351323f830c54b4f4dfcb3c9",
      "transactionIndex": "0x63",
      "blockHash": "0xd526402f38b0b8d1c08a45e72f1b177b2e0018bc09a4b989ffb8bf75ec8780cb",
      "blockNumber": "0xa00ea5",
      "gasUsed": "0x29513",
      "effectiveGasPrice": "0xf424a",
      "from": "0x27a2dd1823d883935c9824fbac0a018ce8e891e5",
      "to": "0xeb7e65ba425dfceeb8ccf3e4be5196e33a91bc66",
      "contractAddress": null
    },
    {
      "status": "0x1",
      "cumulativeGasUsed": "0xdaf229",
      "logs": [
        {
          "address": "0xeb7e65ba425dfceeb8ccf3e4be5196e33a91bc66",
          "topics": [
            "0x023c5efe572c42192271951adb0e77f97d7fc84bc761d026189ac08617346824",
            "0x00000000000000000000000058a57ed9d8d624cbd12e2c467d34787555bb1b25"
          ],
          "data": "0x000000000000000000000000000000000000000000000000000000000000004000000000000000000000000000000000000000000000000000000000000003e8000000000000000000000000000000000000000000000000000000000000000544656c7461000000000000000000000000000000000000000000000000000000",
          "blockHash": "0xd526402f38b0b8d1c08a45e72f1b177b2e0018bc09a4b989ffb8bf75ec8780cb",
          "blockNumber": "0xa00ea5",
          "blockTimestamp": "0x69be5174",
          "transactionHash": "0x97828ff04fe40de1567d0f1ecd9533dba55bb37c36fdea5c50d49229931a77f6",
          "transactionIndex": "0x64",
          "logIndex": "0x1d6",
          "removed": false
        }
      ],
      "logsBloom": "0x00000000000000000000000000000000000000000000000000000000000040000000000000000000000040000000000000000000000000000200000000000000000000000000000000000000000000000000000000010000000000000000000000000080000000000000000000000000000000000000000000000000000000000000000000000000000000000000000000000000000000000000000000000000000100000000000000000000000000002000000000000000000000000000000200000000000400000000000000000000000000000000000000000000000000000000000000000000000000000000000000000000000000000000000000000000",
      "type": "0x2",
      "transactionHash": "0x97828ff04fe40de1567d0f1ecd9533dba55bb37c36fdea5c50d49229931a77f6",
      "transactionIndex": "0x64",
      "blockHash": "0xd526402f38b0b8d1c08a45e72f1b177b2e0018bc09a4b989ffb8bf75ec8780cb",
      "blockNumber": "0xa00ea5",
      "gasUsed": "0x29513",
      "effectiveGasPrice": "0xf424a",
      "from": "0x27a2dd1823d883935c9824fbac0a018ce8e891e5",
      "to": "0xeb7e65ba425dfceeb8ccf3e4be5196e33a91bc66",
      "contractAddress": null
    },
    {
      "status": "0x1",
      "cumulativeGasUsed": "0xdd8754",
      "logs": [
        {
          "address": "0xeb7e65ba425dfceeb8ccf3e4be5196e33a91bc66",
          "topics": [
            "0x023c5efe572c42192271951adb0e77f97d7fc84bc761d026189ac08617346824",
            "0x0000000000000000000000003061750d3df69ef7b8d4407cb7f3f879fd9d2398"
          ],
          "data": "0x000000000000000000000000000000000000000000000000000000000000004000000000000000000000000000000000000000000000000000000000000003e80000000000000000000000000000000000000000000000000000000000000007457073696c6f6e00000000000000000000000000000000000000000000000000",
          "blockHash": "0xd526402f38b0b8d1c08a45e72f1b177b2e0018bc09a4b989ffb8bf75ec8780cb",
          "blockNumber": "0xa00ea5",
          "blockTimestamp": "0x69be5174",
          "transactionHash": "0xae3556446897ac97b5b2ec9b1f27b3467d33de97ab9c928533af6cb1abbc958a",
          "transactionIndex": "0x65",
          "logIndex": "0x1d7",
          "removed": false
        }
      ],
      "logsBloom": "0x00000000000000000000010000000000000000000000000000000000000040000000100000000000000000000000000000000000000000000200000000000000000000000000000000000000000000000000000000010000000000000000000000000080000000000000000000000000000000000000000000000000000000000000000000000000000000000000000000000000000000000000000000000000000100000000000000000000000000000000000000000000000000000000000200000000000000000200000000000000000000000000000000000000000000000000000000000000000000000000000000000000000000000000000000000000",
      "type": "0x2",
      "transactionHash": "0xae3556446897ac97b5b2ec9b1f27b3467d33de97ab9c928533af6cb1abbc958a",
      "transactionIndex": "0x65",
      "blockHash": "0xd526402f38b0b8d1c08a45e72f1b177b2e0018bc09a4b989ffb8bf75ec8780cb",
      "blockNumber": "0xa00ea5",
      "gasUsed": "0x2952b",
      "effectiveGasPrice": "0xf424a",
      "from": "0x27a2dd1823d883935c9824fbac0a018ce8e891e5",
      "to": "0xeb7e65ba425dfceeb8ccf3e4be5196e33a91bc66",
      "contractAddress": null
    },
    {
      "status": "0x1",
      "cumulativeGasUsed": "0xde3ac1",
      "logs": [
        {
          "address": "0x15e6d94ad51bc813d74e034fc067778f85d26936",
          "topics": [
            "0x8c5be1e5ebec7d5bd14f71427d1e84f3dd0314c0f7b2291e5b200ac8c7c3b925",
            "0x00000000000000000000000027a2dd1823d883935c9824fbac0a018ce8e891e5",
            "0x000000000000000000000000eb7e65ba425dfceeb8ccf3e4be5196e33a91bc66"
          ],
          "data": "0x000000000000000000000000000000000000000000000000000000174876e800",
          "blockHash": "0xd526402f38b0b8d1c08a45e72f1b177b2e0018bc09a4b989ffb8bf75ec8780cb",
          "blockNumber": "0xa00ea5",
          "blockTimestamp": "0x69be5174",
          "transactionHash": "0xf848a46ec4f70bd28380a6110f232fdd6e7ec8a355d182916e28083681d95d09",
          "transactionIndex": "0x66",
          "logIndex": "0x1d8",
          "removed": false
        }
      ],
      "logsBloom": "0x00000000000000000000000400000000000000000000000000000000000000000000000000000000000000000000001000000000000000000000000000200000000100000000000000000000000000000000000000000000000100000000000000000000000000000000000000000000000000000000000000000000000000000000000000400000000000000000000000000000000000000000000000000000020800000000000000000000000000000000000000000000000000000000000000000000000000000000000000000000000000400000000000000000000000400010000000000000000000000000000000000000000010000000000000000000",
      "type": "0x2",
      "transactionHash": "0xf848a46ec4f70bd28380a6110f232fdd6e7ec8a355d182916e28083681d95d09",
      "transactionIndex": "0x66",
      "blockHash": "0xd526402f38b0b8d1c08a45e72f1b177b2e0018bc09a4b989ffb8bf75ec8780cb",
      "blockNumber": "0xa00ea5",
      "gasUsed": "0xb36d",
      "effectiveGasPrice": "0xf424a",
      "from": "0x27a2dd1823d883935c9824fbac0a018ce8e891e5",
      "to": "0x15e6d94ad51bc813d74e034fc067778f85d26936",
      "contractAddress": null
    },
    {
      "status": "0x1",
      "cumulativeGasUsed": "0xdf81ab",
      "logs": [
        {
          "address": "0x15e6d94ad51bc813d74e034fc067778f85d26936",
          "topics": [
            "0xddf252ad1be2c89b69c2b068fc378daa952ba7f163c4a11628f55a4df523b3ef",
            "0x00000000000000000000000027a2dd1823d883935c9824fbac0a018ce8e891e5",
            "0x000000000000000000000000eb7e65ba425dfceeb8ccf3e4be5196e33a91bc66"
          ],
          "data": "0x000000000000000000000000000000000000000000000000000000174876e800",
          "blockHash": "0xd526402f38b0b8d1c08a45e72f1b177b2e0018bc09a4b989ffb8bf75ec8780cb",
          "blockNumber": "0xa00ea5",
          "blockTimestamp": "0x69be5174",
          "transactionHash": "0x2c5483a6354e8e453a028df9f4b6553785e62f3e4db974c26067ba73a4f5b9cd",
          "transactionIndex": "0x67",
          "logIndex": "0x1d9",
          "removed": false
        },
        {
          "address": "0xeb7e65ba425dfceeb8ccf3e4be5196e33a91bc66",
          "topics": [
            "0x8752a472e571a816aea92eec8dae9baf628e840f4929fbcc2d155e6233ff68a7",
            "0x00000000000000000000000015e6d94ad51bc813d74e034fc067778f85d26936",
            "0x00000000000000000000000027a2dd1823d883935c9824fbac0a018ce8e891e5"
          ],
          "data": "0x000000000000000000000000000000000000000000000000000000174876e800",
          "blockHash": "0xd526402f38b0b8d1c08a45e72f1b177b2e0018bc09a4b989ffb8bf75ec8780cb",
          "blockNumber": "0xa00ea5",
          "blockTimestamp": "0x69be5174",
          "transactionHash": "0x2c5483a6354e8e453a028df9f4b6553785e62f3e4db974c26067ba73a4f5b9cd",
          "transactionIndex": "0x67",
          "logIndex": "0x1da",
          "removed": false
        }
      ],
      "logsBloom": "0x00000000000000000000000400000000000000000000000000000000000000000400000000000000000000000000001000000000000000000200000000000000000100000000000010000008800000000000000000010000000100000000000000100080000000000000000000000000000000000000000000000010000000000000000000400000000000000000000000000000000000000000000000000002000800000000000000000000000000000000000000080000000000000000000000000002000000000000000000000000000000400000000000000000000000400000000000000000000000000000000000000000000010000000000000000000",
      "type": "0x2",
      "transactionHash": "0x2c5483a6354e8e453a028df9f4b6553785e62f3e4db974c26067ba73a4f5b9cd",
      "transactionIndex": "0x67",
      "blockHash": "0xd526402f38b0b8d1c08a45e72f1b177b2e0018bc09a4b989ffb8bf75ec8780cb",
      "blockNumber": "0xa00ea5",
      "gasUsed": "0x146ea",
      "effectiveGasPrice": "0xf424a",
      "from": "0x27a2dd1823d883935c9824fbac0a018ce8e891e5",
      "to": "0xeb7e65ba425dfceeb8ccf3e4be5196e33a91bc66",
      "contractAddress": null
    }
  ],
  "libraries": [],
  "pending": [],
  "returns": {},
  "timestamp": 1774080373,
  "chain": 11155111,
  "commit": "1f2c4ec"
}